{
  "_format": "hh-sol-artifact-1",
  "contractName": "CarbB",
  "sourceName": "contracts/CarbB.sol",
  "abi": [
    {
      "inputs": [],
      "stateMutability": "nonpayable",
      "type": "constructor"
    },
    {
      "inputs": [
        {
          "internalType": "address",
          "name": "spender",
          "type": "address"
        },
        {
          "internalType": "uint256",
          "name": "allowance",
          "type": "uint256"
        },
        {
          "internalType": "uint256",
          "name": "needed",
          "type": "uint256"
        }
      ],
      "name": "ERC20InsufficientAllowance",
      "type": "error"
    },
    {
      "inputs": [
        {
          "internalType": "address",
          "name": "sender",
          "type": "address"
        },
        {
          "internalType": "uint256",
          "name": "balance",
          "type": "uint256"
        },
        {
          "internalType": "uint256",
          "name": "needed",
          "type": "uint256"
        }
      ],
      "name": "ERC20InsufficientBalance",
      "type": "error"
    },
    {
      "inputs": [
        {
          "internalType": "address",
          "name": "approver",
          "type": "address"
        }
      ],
      "name": "ERC20InvalidApprover",
      "type": "error"
    },
    {
      "inputs": [
        {
          "internalType": "address",
          "name": "receiver",
          "type": "address"
        }
      ],
      "name": "ERC20InvalidReceiver",
      "type": "error"
    },
    {
      "inputs": [
        {
          "internalType": "address",
          "name": "sender",
          "type": "address"
        }
      ],
      "name": "ERC20InvalidSender",
      "type": "error"
    },
    {
      "inputs": [
        {
          "internalType": "address",
          "name": "spender",
          "type": "address"
        }
      ],
      "name": "ERC20InvalidSpender",
      "type": "error"
    },
    {
      "inputs": [
        {
          "internalType": "address",
          "name": "owner",
          "type": "address"
        }
      ],
      "name": "OwnableInvalidOwner",
      "type": "error"
    },
    {
      "inputs": [
        {
          "internalType": "address",
          "name": "account",
          "type": "address"
        }
      ],
      "name": "OwnableUnauthorizedAccount",
      "type": "error"
    },
    {
      "anonymous": false,
      "inputs": [
        {
          "indexed": true,
          "internalType": "address",
          "name": "owner",
          "type": "address"
        },
        {
          "indexed": true,
          "internalType": "address",
          "name": "spender",
          "type": "address"
        },
        {
          "indexed": false,
          "internalType": "uint256",
          "name": "value",
          "type": "uint256"
        }
      ],
      "name": "Approval",
      "type": "event"
    },
    {
      "anonymous": false,
      "inputs": [
        {
          "indexed": false,
          "internalType": "uint256",
          "name": "key",
          "type": "uint256"
        },
        {
          "indexed": false,
          "internalType": "uint256",
          "name": "treeId",
          "type": "uint256"
        },
        {
          "indexed": false,
          "internalType": "string",
          "name": "species",
          "type": "string"
        },
        {
          "indexed": false,
          "internalType": "uint256",
          "name": "price",
          "type": "uint256"
        },
        {
          "indexed": false,
          "internalType": "uint256",
          "name": "plantingDate",
          "type": "uint256"
        },
        {
          "indexed": false,
          "internalType": "string",
          "name": "location",
          "type": "string"
        },
        {
          "indexed": false,
          "internalType": "string",
          "name": "locationOwnerName",
          "type": "string"
        },
        {
          "indexed": false,
          "internalType": "string",
          "name": "locationOwnerAddress",
          "type": "string"
        }
      ],
      "name": "AvailableTokenTreeAdded",
      "type": "event"
    },
    {
      "anonymous": false,
      "inputs": [
        {
          "indexed": false,
          "internalType": "address",
          "name": "purchaser",
          "type": "address"
        },
        {
          "indexed": false,
          "internalType": "uint256",
          "name": "tokenTreeKey",
          "type": "uint256"
        }
      ],
      "name": "AvailableTokenTreeRemoved",
      "type": "event"
    },
    {
      "anonymous": false,
      "inputs": [
        {
          "indexed": false,
          "internalType": "uint256",
          "name": "tokenTreeKey",
          "type": "uint256"
        }
      ],
      "name": "AvailableTokenTreeRemovedByAdmin",
      "type": "event"
    },
    {
      "anonymous": false,
      "inputs": [
        {
          "indexed": false,
          "internalType": "uint256",
          "name": "key",
          "type": "uint256"
        },
        {
          "indexed": false,
          "internalType": "uint256",
          "name": "treeId",
          "type": "uint256"
        },
        {
          "indexed": false,
          "internalType": "string",
          "name": "species",
          "type": "string"
        },
        {
          "indexed": false,
          "internalType": "uint256",
          "name": "price",
          "type": "uint256"
        },
        {
          "indexed": false,
          "internalType": "uint256",
          "name": "plantingDate",
          "type": "uint256"
        },
        {
          "indexed": false,
          "internalType": "string",
          "name": "location",
          "type": "string"
        },
        {
          "indexed": false,
          "internalType": "string",
          "name": "locationOwnerName",
          "type": "string"
        },
        {
          "indexed": false,
          "internalType": "string",
          "name": "locationOwnerAddress",
          "type": "string"
        }
      ],
      "name": "AvailableTokenTreeUpdated",
      "type": "event"
    },
    {
      "anonymous": false,
      "inputs": [
        {
          "indexed": true,
          "internalType": "address",
          "name": "previousOwner",
          "type": "address"
        },
        {
          "indexed": true,
          "internalType": "address",
          "name": "newOwner",
          "type": "address"
        }
      ],
      "name": "OwnershipTransferred",
      "type": "event"
    },
    {
      "anonymous": false,
      "inputs": [
        {
          "indexed": false,
          "internalType": "address",
          "name": "purchaser",
          "type": "address"
        },
        {
          "indexed": false,
          "internalType": "uint256",
          "name": "tokenTreeKey",
          "type": "uint256"
        }
      ],
      "name": "TokenTreePurchased",
      "type": "event"
    },
    {
      "anonymous": false,
      "inputs": [
        {
          "indexed": false,
          "internalType": "uint256",
          "name": "tokenTreeKey",
          "type": "uint256"
        },
        {
          "indexed": false,
          "internalType": "address",
          "name": "to",
          "type": "address"
        }
      ],
      "name": "TokenTreeTransferred",
      "type": "event"
    },
    {
      "anonymous": false,
      "inputs": [
        {
          "indexed": false,
          "internalType": "uint256",
          "name": "tokenTreeKey",
          "type": "uint256"
        },
        {
          "indexed": false,
          "internalType": "address",
          "name": "from",
          "type": "address"
        },
        {
          "indexed": false,
          "internalType": "address",
          "name": "to",
          "type": "address"
        }
      ],
      "name": "TokenTreeTransferredFrom",
      "type": "event"
    },
    {
      "anonymous": false,
      "inputs": [
        {
          "indexed": true,
          "internalType": "address",
          "name": "from",
          "type": "address"
        },
        {
          "indexed": true,
          "internalType": "address",
          "name": "to",
          "type": "address"
        },
        {
          "indexed": false,
          "internalType": "uint256",
          "name": "value",
          "type": "uint256"
        }
      ],
      "name": "Transfer",
      "type": "event"
    },
    {
      "inputs": [
        {
          "internalType": "string",
          "name": "_species",
          "type": "string"
        },
        {
          "internalType": "uint256",
          "name": "_price",
          "type": "uint256"
        },
        {
          "internalType": "uint256",
          "name": "_plantingDate",
          "type": "uint256"
        },
        {
          "internalType": "string",
          "name": "_location",
          "type": "string"
        },
        {
          "internalType": "string",
          "name": "_locationOwnerName",
          "type": "string"
        },
        {
          "internalType": "string",
          "name": "_locationOwnerAddress",
          "type": "string"
        }
      ],
      "name": "addTokenTree",
      "outputs": [],
      "stateMutability": "nonpayable",
      "type": "function"
    },
    {
      "inputs": [
        {
          "internalType": "address",
          "name": "owner",
          "type": "address"
        },
        {
          "internalType": "address",
          "name": "spender",
          "type": "address"
        }
      ],
      "name": "allowance",
      "outputs": [
        {
          "internalType": "uint256",
          "name": "",
          "type": "uint256"
        }
      ],
      "stateMutability": "view",
      "type": "function"
    },
    {
      "inputs": [
        {
          "internalType": "address",
          "name": "spender",
          "type": "address"
        },
        {
          "internalType": "uint256",
          "name": "value",
          "type": "uint256"
        }
      ],
      "name": "approve",
      "outputs": [
        {
          "internalType": "bool",
          "name": "",
          "type": "bool"
        }
      ],
      "stateMutability": "nonpayable",
      "type": "function"
    },
    {
      "inputs": [],
      "name": "availableTokenTreeCount",
      "outputs": [
        {
          "internalType": "uint256",
          "name": "",
          "type": "uint256"
        }
      ],
      "stateMutability": "view",
      "type": "function"
    },
    {
      "inputs": [
        {
          "internalType": "address",
          "name": "account",
          "type": "address"
        }
      ],
      "name": "balanceOf",
      "outputs": [
        {
          "internalType": "uint256",
          "name": "",
          "type": "uint256"
        }
      ],
      "stateMutability": "view",
      "type": "function"
    },
    {
      "inputs": [
        {
          "internalType": "uint256",
          "name": "_tokenTreeKey",
          "type": "uint256"
        }
      ],
      "name": "buy",
      "outputs": [],
      "stateMutability": "payable",
      "type": "function"
    },
    {
      "inputs": [],
      "name": "decimals",
      "outputs": [
        {
          "internalType": "uint8",
          "name": "",
          "type": "uint8"
        }
      ],
      "stateMutability": "view",
      "type": "function"
    },
    {
      "inputs": [],
      "name": "getAvailableTokenTrees",
      "outputs": [
        {
          "components": [
            {
              "internalType": "uint256",
              "name": "key",
              "type": "uint256"
            },
            {
              "internalType": "uint256",
              "name": "treeId",
              "type": "uint256"
            },
            {
              "internalType": "string",
              "name": "species",
              "type": "string"
            },
            {
              "internalType": "uint256",
              "name": "price",
              "type": "uint256"
            },
            {
              "internalType": "uint256",
              "name": "plantingDate",
              "type": "uint256"
            },
            {
              "internalType": "string",
              "name": "location",
              "type": "string"
            },
            {
              "internalType": "string",
              "name": "locationOwnerName",
              "type": "string"
            },
            {
              "internalType": "string",
              "name": "locationOwnerAddress",
              "type": "string"
            }
          ],
          "internalType": "struct CarbB.TokenTree[]",
          "name": "",
          "type": "tuple[]"
        }
      ],
      "stateMutability": "view",
      "type": "function"
    },
    {
      "inputs": [],
      "name": "getCustomerTokenTrees",
      "outputs": [
        {
          "components": [
            {
              "internalType": "uint256",
              "name": "key",
              "type": "uint256"
            },
            {
              "internalType": "uint256",
              "name": "treeId",
              "type": "uint256"
            },
            {
              "internalType": "string",
              "name": "species",
              "type": "string"
            },
            {
              "internalType": "uint256",
              "name": "price",
              "type": "uint256"
            },
            {
              "internalType": "uint256",
              "name": "plantingDate",
              "type": "uint256"
            },
            {
              "internalType": "string",
              "name": "location",
              "type": "string"
            },
            {
              "internalType": "string",
              "name": "locationOwnerName",
              "type": "string"
            },
            {
              "internalType": "string",
              "name": "locationOwnerAddress",
              "type": "string"
            }
          ],
          "internalType": "struct CarbB.TokenTree[]",
          "name": "",
          "type": "tuple[]"
        }
      ],
      "stateMutability": "view",
      "type": "function"
    },
    {
      "inputs": [],
      "name": "name",
      "outputs": [
        {
          "internalType": "string",
          "name": "",
          "type": "string"
        }
      ],
      "stateMutability": "view",
      "type": "function"
    },
    {
      "inputs": [],
      "name": "owner",
      "outputs": [
        {
          "internalType": "address",
          "name": "",
          "type": "address"
        }
      ],
      "stateMutability": "view",
      "type": "function"
    },
    {
      "inputs": [
        {
          "internalType": "uint256",
          "name": "_tokenTreeKey",
          "type": "uint256"
        }
      ],
      "name": "removeAvailableTokenTreeAdmin",
      "outputs": [],
      "stateMutability": "nonpayable",
      "type": "function"
    },
    {
      "inputs": [],
      "name": "renounceOwnership",
      "outputs": [],
      "stateMutability": "nonpayable",
      "type": "function"
    },
    {
      "inputs": [],
      "name": "symbol",
      "outputs": [
        {
          "internalType": "string",
          "name": "",
          "type": "string"
        }
      ],
      "stateMutability": "view",
      "type": "function"
    },
    {
      "inputs": [],
      "name": "totalSupply",
      "outputs": [
        {
          "internalType": "uint256",
          "name": "",
          "type": "uint256"
        }
      ],
      "stateMutability": "view",
      "type": "function"
    },
    {
      "inputs": [
        {
          "internalType": "address",
          "name": "_to",
          "type": "address"
        },
        {
          "internalType": "uint256",
          "name": "_tokenTreeKey",
          "type": "uint256"
        }
      ],
      "name": "transfer",
      "outputs": [
        {
          "internalType": "bool",
          "name": "",
          "type": "bool"
        }
      ],
      "stateMutability": "nonpayable",
      "type": "function"
    },
    {
      "inputs": [
        {
          "internalType": "address",
          "name": "_from",
          "type": "address"
        },
        {
          "internalType": "address",
          "name": "_to",
          "type": "address"
        },
        {
          "internalType": "uint256",
          "name": "_tokenTreeKey",
          "type": "uint256"
        }
      ],
      "name": "transferFrom",
      "outputs": [
        {
          "internalType": "bool",
          "name": "",
          "type": "bool"
        }
      ],
      "stateMutability": "nonpayable",
      "type": "function"
    },
    {
      "inputs": [
        {
          "internalType": "address",
          "name": "newOwner",
          "type": "address"
        }
      ],
      "name": "transferOwnership",
      "outputs": [],
      "stateMutability": "nonpayable",
      "type": "function"
    },
    {
      "inputs": [
        {
          "internalType": "uint256",
          "name": "_tokenTreeKey",
          "type": "uint256"
        },
        {
          "internalType": "string",
          "name": "_species",
          "type": "string"
        },
        {
          "internalType": "uint256",
          "name": "_price",
          "type": "uint256"
        },
        {
          "internalType": "uint256",
          "name": "_plantingDate",
          "type": "uint256"
        },
        {
          "internalType": "string",
          "name": "_location",
          "type": "string"
        },
        {
          "internalType": "string",
          "name": "_locationOwnerName",
          "type": "string"
        },
        {
          "internalType": "string",
          "name": "_locationOwnerAddress",
          "type": "string"
        }
      ],
      "name": "updateTokenTree",
      "outputs": [],
      "stateMutability": "nonpayable",
      "type": "function"
    },
    {
      "inputs": [],
      "name": "withdraw",
      "outputs": [],
      "stateMutability": "nonpayable",
      "type": "function"
    }
  ],
  "bytecode": "0x608060405234801561001057600080fd5b50336040518060400160405280600c81526020017f434152424f4e54524545204200000000000000000000000000000000000000008152506040518060400160405280600681526020017f434152422d420000000000000000000000000000000000000000000000000000815250816003908161008d919061043d565b50806004908161009d919061043d565b505050600073ffffffffffffffffffffffffffffffffffffffff168173ffffffffffffffffffffffffffffffffffffffff16036101125760006040517f1e4fbdf70000000000000000000000000000000000000000000000000000000081526004016101099190610550565b60405180910390fd5b6101218161012760201b60201c565b5061056b565b6000600560009054906101000a900473ffffffffffffffffffffffffffffffffffffffff16905081600560006101000a81548173ffffffffffffffffffffffffffffffffffffffff021916908373ffffffffffffffffffffffffffffffffffffffff1602179055508173ffffffffffffffffffffffffffffffffffffffff168173ffffffffffffffffffffffffffffffffffffffff167f8be0079c531659141344cd1fd0a4f28419497f9722a3daafe3b4186f6b6457e060405160405180910390a35050565b600081519050919050565b7f4e487b7100000000000000000000000000000000000000000000000000000000600052604160045260246000fd5b7f4e487b7100000000000000000000000000000000000000000000000000000000600052602260045260246000fd5b6000600282049050600182168061026e57607f821691505b60208210810361028157610280610227565b5b50919050565b60008190508160005260206000209050919050565b60006020601f8301049050919050565b600082821b905092915050565b6000600883026102e97fffffffffffffffffffffffffffffffffffffffffffffffffffffffffffffffff826102ac565b6102f386836102ac565b95508019841693508086168417925050509392505050565b6000819050919050565b6000819050919050565b600061033a6103356103308461030b565b610315565b61030b565b9050919050565b6000819050919050565b6103548361031f565b61036861036082610341565b8484546102b9565b825550505050565b600090565b61037d610370565b61038881848461034b565b505050565b5b818110156103ac576103a1600082610375565b60018101905061038e565b5050565b601f8211156103f1576103c281610287565b6103cb8461029c565b810160208510156103da578190505b6103ee6103e68561029c565b83018261038d565b50505b505050565b600082821c905092915050565b6000610414600019846008026103f6565b1980831691505092915050565b600061042d8383610403565b9150826002028217905092915050565b610446826101ed565b67ffffffffffffffff81111561045f5761045e6101f8565b5b6104698254610256565b6104748282856103b0565b600060209050601f8311600181146104a75760008415610495578287015190505b61049f8582610421565b865550610507565b601f1984166104b586610287565b60005b828110156104dd578489015182556001820191506020850194506020810190506104b8565b868310156104fa57848901516104f6601f891682610403565b8355505b6001600288020188555050505b505050505050565b600073ffffffffffffffffffffffffffffffffffffffff82169050919050565b600061053a8261050f565b9050919050565b61054a8161052f565b82525050565b60006020820190506105656000830184610541565b92915050565b6145188061057a6000396000f3fe60806040526004361061011f5760003560e01c806370a08231116100a0578063a9059cbb11610064578063a9059cbb146103b1578063c249b340146103ee578063d96a094a14610419578063dd62ed3e14610435578063f2fde38b146104725761011f565b806370a08231146102de578063715018a61461031b5780638da5cb5b1461033257806395d89b411461035d578063a0504867146103885761011f565b8063313ce567116100e7578063313ce5671461021d5780633ccfd60b14610248578063469923c31461025f5780635567fd271461028a57806368f17f44146102b55761011f565b806306fdde0314610124578063095ea7b31461014f5780631720dbd31461018c57806318160ddd146101b557806323b872dd146101e0575b600080fd5b34801561013057600080fd5b5061013961049b565b6040516101469190612f27565b60405180910390f35b34801561015b57600080fd5b5061017660048036038101906101719190612ff1565b61052d565b604051610183919061304c565b60405180910390f35b34801561019857600080fd5b506101b360048036038101906101ae919061319c565b610550565b005b3480156101c157600080fd5b506101ca6108b2565b6040516101d791906132bd565b60405180910390f35b3480156101ec57600080fd5b50610207600480360381019061020291906132d8565b6108bc565b604051610214919061304c565b60405180910390f35b34801561022957600080fd5b50610232610b77565b60405161023f9190613347565b60405180910390f35b34801561025457600080fd5b5061025d610b80565b005b34801561026b57600080fd5b50610274610c37565b6040516102819190613542565b60405180910390f35b34801561029657600080fd5b5061029f610fbe565b6040516102ac91906132bd565b60405180910390f35b3480156102c157600080fd5b506102dc60048036038101906102d79190613564565b610fc4565b005b3480156102ea57600080fd5b5061030560048036038101906103009190613661565b6112d7565b60405161031291906132bd565b60405180910390f35b34801561032757600080fd5b5061033061131f565b005b34801561033e57600080fd5b50610347611333565b604051610354919061369d565b60405180910390f35b34801561036957600080fd5b5061037261135d565b60405161037f9190612f27565b60405180910390f35b34801561039457600080fd5b506103af60048036038101906103aa91906136b8565b6113ef565b005b3480156103bd57600080fd5b506103d860048036038101906103d39190612ff1565b61143a565b6040516103e5919061304c565b60405180910390f35b3480156103fa57600080fd5b506104036116e6565b6040516104109190613542565b60405180910390f35b610433600480360381019061042e91906136b8565b611a26565b005b34801561044157600080fd5b5061045c600480360381019061045791906136e5565b611cf1565b60405161046991906132bd565b60405180910390f35b34801561047e57600080fd5b5061049960048036038101906104949190613661565b611d78565b005b6060600380546104aa90613754565b80601f01602080910402602001604051908101604052809291908181526020018280546104d690613754565b80156105235780601f106104f857610100808354040283529160200191610523565b820191906000526020600020905b81548152906001019060200180831161050657829003601f168201915b5050505050905090565b600080610538611dfe565b9050610545818585611e06565b600191505092915050565b610558611e18565b600060096000898152602001908152602001600020600001541161057b88611e9f565b60405160200161058b9190613859565b604051602081830303815290604052906105db576040517f08c379a00000000000000000000000000000000000000000000000000000000081526004016105d29190612f27565b60405180910390fd5b506000865103610620576040517f08c379a0000000000000000000000000000000000000000000000000000000008152600401610617906138d6565b60405180910390fd5b60008511610663576040517f08c379a000000000000000000000000000000000000000000000000000000000815260040161065a90613942565b60405180910390fd5b600084036106a6576040517f08c379a000000000000000000000000000000000000000000000000000000000815260040161069d906139ae565b60405180910390fd5b60008351036106ea576040517f08c379a00000000000000000000000000000000000000000000000000000000081526004016106e190613a1a565b60405180910390fd5b600082510361072e576040517f08c379a000000000000000000000000000000000000000000000000000000000815260040161072590613aac565b60405180910390fd5b6000815103610772576040517f08c379a000000000000000000000000000000000000000000000000000000000815260040161076990613b3e565b60405180910390fd5b60006009600089815260200190815260200160002060010154905060006040518061010001604052808a815260200183815260200189815260200188815260200187815260200186815260200185815260200184815250905080600960008b8152602001908152602001600020600082015181600001556020820151816001015560408201518160020190816108089190613d0a565b50606082015181600301556080820151816004015560a08201518160050190816108329190613d0a565b5060c08201518160060190816108489190613d0a565b5060e082015181600701908161085e9190613d0a565b509050507f44dc1e09043809d0cfcc597004ef9f7881784b22012d96f3931f26dfab71741a898a8a8a8a8a8a8a60405161089f989796959493929190613ddc565b60405180910390a1505050505050505050565b6000600254905090565b600080600a60008673ffffffffffffffffffffffffffffffffffffffff1673ffffffffffffffffffffffffffffffffffffffff1681526020019081526020016000206000848152602001908152602001600020600001541161091d83611e9f565b60405160200161092d9190613f5a565b6040516020818303038152906040529061097d576040517f08c379a00000000000000000000000000000000000000000000000000000000081526004016109749190612f27565b60405180910390fd5b5061098a84336001611f6d565b61099684846001612001565b600060016109a3856120f5565b6109ad9190613fb6565b9050600a60008673ffffffffffffffffffffffffffffffffffffffff1673ffffffffffffffffffffffffffffffffffffffff1681526020019081526020016000206000848152602001908152602001600020600a60008673ffffffffffffffffffffffffffffffffffffffff1673ffffffffffffffffffffffffffffffffffffffff1681526020019081526020016000206000838152602001908152602001600020600082015481600001556001820154816001015560028201816002019081610a779190614000565b50600382015481600301556004820154816004015560058201816005019081610aa09190614000565b5060068201816006019081610ab59190614000565b5060078201816007019081610aca9190614000565b5090505080600a60008673ffffffffffffffffffffffffffffffffffffffff1673ffffffffffffffffffffffffffffffffffffffff168152602001908152602001600020600083815260200190815260200160002060000181905550610b30858461217f565b7f955bc6d38fc731a884c0d2dc2f8d6f594ae8ba78de309db32c22921280e8a1b8838686604051610b63939291906140e8565b60405180910390a160019150509392505050565b60006012905090565b610b88611e18565b60003373ffffffffffffffffffffffffffffffffffffffff1647604051610bae90614150565b60006040518083038185875af1925050503d8060008114610beb576040519150601f19603f3d011682016040523d82523d6000602084013e610bf0565b606091505b5050905080610c34576040517f08c379a0000000000000000000000000000000000000000000000000000000008152600401610c2b906141b1565b60405180910390fd5b50565b60606000610c44336120f5565b90506000600182610c559190613fb6565b67ffffffffffffffff811115610c6e57610c6d613071565b5b604051908082528060200260200182016040528015610ca757816020015b610c94612df5565b815260200190600190039081610c8c5790505b5090506000600190505b828111610fb557600a60003373ffffffffffffffffffffffffffffffffffffffff1673ffffffffffffffffffffffffffffffffffffffff1681526020019081526020016000206000828152602001908152602001600020604051806101000160405290816000820154815260200160018201548152602001600282018054610d3890613754565b80601f0160208091040260200160405190810160405280929190818152602001828054610d6490613754565b8015610db15780601f10610d8657610100808354040283529160200191610db1565b820191906000526020600020905b815481529060010190602001808311610d9457829003601f168201915b505050505081526020016003820154815260200160048201548152602001600582018054610dde90613754565b80601f0160208091040260200160405190810160405280929190818152602001828054610e0a90613754565b8015610e575780601f10610e2c57610100808354040283529160200191610e57565b820191906000526020600020905b815481529060010190602001808311610e3a57829003601f168201915b50505050508152602001600682018054610e7090613754565b80601f0160208091040260200160405190810160405280929190818152602001828054610e9c90613754565b8015610ee95780601f10610ebe57610100808354040283529160200191610ee9565b820191906000526020600020905b815481529060010190602001808311610ecc57829003601f168201915b50505050508152602001600782018054610f0290613754565b80601f0160208091040260200160405190810160405280929190818152602001828054610f2e90613754565b8015610f7b5780601f10610f5057610100808354040283529160200191610f7b565b820191906000526020600020905b815481529060010190602001808311610f5e57829003601f168201915b505050505081525050828281518110610f9757610f966141d1565b5b60200260200101819052508080610fad90614200565b915050610cb1565b50809250505090565b60065481565b610fcc611e18565b6000865103611010576040517f08c379a0000000000000000000000000000000000000000000000000000000008152600401611007906138d6565b60405180910390fd5b60008511611053576040517f08c379a000000000000000000000000000000000000000000000000000000000815260040161104a90613942565b60405180910390fd5b60008403611096576040517f08c379a000000000000000000000000000000000000000000000000000000000815260040161108d906139ae565b60405180910390fd5b60008351036110da576040517f08c379a00000000000000000000000000000000000000000000000000000000081526004016110d190613a1a565b60405180910390fd5b600082510361111e576040517f08c379a000000000000000000000000000000000000000000000000000000000815260040161111590613aac565b60405180910390fd5b6000815103611162576040517f08c379a000000000000000000000000000000000000000000000000000000000815260040161115990613b3e565b60405180910390fd5b6008600081548092919061117590614200565b91905055506007600081548092919061118d90614200565b919050555060006040518061010001604052806007548152602001600854815260200188815260200187815260200186815260200185815260200184815260200183815250905080600960006007548152602001908152602001600020600082015181600001556020820151816001015560408201518160020190816112139190613d0a565b50606082015181600301556080820151816004015560a082015181600501908161123d9190613d0a565b5060c08201518160060190816112539190613d0a565b5060e08201518160070190816112699190613d0a565b509050506006600081548092919061128090614200565b91905055507f1b9faa2f26f9f6fbe7165ca16e920629e47c33208e726da4c031ebe7f04d818b6007546008548989898989896040516112c6989796959493929190613ddc565b60405180910390a150505050505050565b60008060008373ffffffffffffffffffffffffffffffffffffffff1673ffffffffffffffffffffffffffffffffffffffff168152602001908152602001600020549050919050565b611327611e18565b6113316000612496565b565b6000600560009054906101000a900473ffffffffffffffffffffffffffffffffffffffff16905090565b60606004805461136c90613754565b80601f016020809104026020016040519081016040528092919081815260200182805461139890613754565b80156113e55780601f106113ba576101008083540402835291602001916113e5565b820191906000526020600020905b8154815290600101906020018083116113c857829003601f168201915b5050505050905090565b6113f7611e18565b6114008161255c565b7f2af39e2e6ace2c8719c72332ec361931fbfe979888b0ce96805a6493fc9528de8160405161142f91906132bd565b60405180910390a150565b600080600a60003373ffffffffffffffffffffffffffffffffffffffff1673ffffffffffffffffffffffffffffffffffffffff1681526020019081526020016000206000848152602001908152602001600020600001541161149b83611e9f565b6040516020016114ab91906142ba565b604051602081830303815290604052906114fb576040517f08c379a00000000000000000000000000000000000000000000000000000000081526004016114f29190612f27565b60405180910390fd5b5061150833846001612001565b60006001611515856120f5565b61151f9190613fb6565b9050600a60003373ffffffffffffffffffffffffffffffffffffffff1673ffffffffffffffffffffffffffffffffffffffff1681526020019081526020016000206000848152602001908152602001600020600a60008673ffffffffffffffffffffffffffffffffffffffff1673ffffffffffffffffffffffffffffffffffffffff16815260200190815260200160002060008381526020019081526020016000206000820154816000015560018201548160010155600282018160020190816115e99190614000565b506003820154816003015560048201548160040155600582018160050190816116129190614000565b50600682018160060190816116279190614000565b506007820181600701908161163c9190614000565b5090505080600a60008673ffffffffffffffffffffffffffffffffffffffff1673ffffffffffffffffffffffffffffffffffffffff1681526020019081526020016000206000838152602001908152602001600020600001819055506116a2338461217f565b7fdfad595c257f53dc047cf08abc5d24c750ab7094448dcf26e5edd485e387e86e83856040516116d39291906142e7565b60405180910390a1600191505092915050565b6060600060016006546116f99190613fb6565b67ffffffffffffffff81111561171257611711613071565b5b60405190808252806020026020018201604052801561174b57816020015b611738612df5565b8152602001906001900390816117305790505b5090506000600190505b6006548111611a1e57600960008281526020019081526020016000206040518061010001604052908160008201548152602001600182015481526020016002820180546117a190613754565b80601f01602080910402602001604051908101604052809291908181526020018280546117cd90613754565b801561181a5780601f106117ef5761010080835404028352916020019161181a565b820191906000526020600020905b8154815290600101906020018083116117fd57829003601f168201915b50505050508152602001600382015481526020016004820154815260200160058201805461184790613754565b80601f016020809104026020016040519081016040528092919081815260200182805461187390613754565b80156118c05780601f10611895576101008083540402835291602001916118c0565b820191906000526020600020905b8154815290600101906020018083116118a357829003601f168201915b505050505081526020016006820180546118d990613754565b80601f016020809104026020016040519081016040528092919081815260200182805461190590613754565b80156119525780601f1061192757610100808354040283529160200191611952565b820191906000526020600020905b81548152906001019060200180831161193557829003601f168201915b5050505050815260200160078201805461196b90613754565b80601f016020809104026020016040519081016040528092919081815260200182805461199790613754565b80156119e45780601f106119b9576101008083540402835291602001916119e4565b820191906000526020600020905b8154815290600101906020018083116119c757829003601f168201915b505050505081525050828281518110611a00576119ff6141d1565b5b60200260200101819052508080611a1690614200565b915050611755565b508091505090565b6000600960008381526020019081526020016000206000015411611a4982611e9f565b604051602001611a599190614336565b60405160208183030381529060405290611aa9576040517f08c379a0000000000000000000000000000000000000000000000000000000008152600401611aa09190612f27565b60405180910390fd5b5060096000828152602001908152602001600020600301543414611acc34611e9f565b611aeb6009600085815260200190815260200160002060030154611e9f565b604051602001611afc9291906143d9565b60405160208183030381529060405290611b4c576040517f08c379a0000000000000000000000000000000000000000000000000000000008152600401611b439190612f27565b60405180910390fd5b50611b58336001612824565b60006001611b65336120f5565b611b6f9190613fb6565b905060096000838152602001908152602001600020600a60003373ffffffffffffffffffffffffffffffffffffffff1673ffffffffffffffffffffffffffffffffffffffff1681526020019081526020016000206000838152602001908152602001600020600082015481600001556001820154816001015560028201816002019081611bfc9190614000565b50600382015481600301556004820154816004015560058201816005019081611c259190614000565b5060068201816006019081611c3a9190614000565b5060078201816007019081611c4f9190614000565b5090505080600a60003373ffffffffffffffffffffffffffffffffffffffff1673ffffffffffffffffffffffffffffffffffffffff168152602001908152602001600020600083815260200190815260200160002060000181905550611cb48261255c565b7fa0248021c36078d55e75384657c0e1f545548c798acf4efc0148a7cc78f78b933383604051611ce592919061442a565b60405180910390a15050565b6000600160008473ffffffffffffffffffffffffffffffffffffffff1673ffffffffffffffffffffffffffffffffffffffff16815260200190815260200160002060008373ffffffffffffffffffffffffffffffffffffffff1673ffffffffffffffffffffffffffffffffffffffff16815260200190815260200160002054905092915050565b611d80611e18565b600073ffffffffffffffffffffffffffffffffffffffff168173ffffffffffffffffffffffffffffffffffffffff1603611df25760006040517f1e4fbdf7000000000000000000000000000000000000000000000000000000008152600401611de9919061369d565b60405180910390fd5b611dfb81612496565b50565b600033905090565b611e1383838360016128a6565b505050565b611e20611dfe565b73ffffffffffffffffffffffffffffffffffffffff16611e3e611333565b73ffffffffffffffffffffffffffffffffffffffff1614611e9d57611e61611dfe565b6040517f118cdaa7000000000000000000000000000000000000000000000000000000008152600401611e94919061369d565b60405180910390fd5b565b606060006001611eae84612a7d565b01905060008167ffffffffffffffff811115611ecd57611ecc613071565b5b6040519080825280601f01601f191660200182016040528015611eff5781602001600182028036833780820191505090505b509050600082602001820190505b600115611f62578080600190039150507f3031323334353637383961626364656600000000000000000000000000000000600a86061a8153600a8581611f5657611f55614453565b5b04945060008503611f0d575b819350505050919050565b6000611f798484611cf1565b90507fffffffffffffffffffffffffffffffffffffffffffffffffffffffffffffffff8114611ffb5781811015611feb578281836040517ffb8f41b2000000000000000000000000000000000000000000000000000000008152600401611fe293929190614482565b60405180910390fd5b611ffa848484840360006128a6565b5b50505050565b600073ffffffffffffffffffffffffffffffffffffffff168373ffffffffffffffffffffffffffffffffffffffff16036120735760006040517f96c6fd1e00000000000000000000000000000000000000000000000000000000815260040161206a919061369d565b60405180910390fd5b600073ffffffffffffffffffffffffffffffffffffffff168273ffffffffffffffffffffffffffffffffffffffff16036120e55760006040517fec442f050000000000000000000000000000000000000000000000000000000081526004016120dc919061369d565b60405180910390fd5b6120f0838383612bd0565b505050565b600080600190505b6000600a60008573ffffffffffffffffffffffffffffffffffffffff1673ffffffffffffffffffffffffffffffffffffffff168152602001908152602001600020600083815260200190815260200160002060000154111561216a578061216390614200565b90506120fd565b80612174906144b9565b905080915050919050565b600a60008373ffffffffffffffffffffffffffffffffffffffff1673ffffffffffffffffffffffffffffffffffffffff168152602001908152602001600020600082815260200190815260200160002060008082016000905560018201600090556002820160006121f09190612e3a565b600382016000905560048201600090556005820160006122109190612e3a565b6006820160006122209190612e3a565b6007820160006122309190612e3a565b5050600061223d836120f5565b905060008290505b818110156123dd57600a60008573ffffffffffffffffffffffffffffffffffffffff1673ffffffffffffffffffffffffffffffffffffffff168152602001908152602001600020600060018361229b9190613fb6565b8152602001908152602001600020600a60008673ffffffffffffffffffffffffffffffffffffffff1673ffffffffffffffffffffffffffffffffffffffff16815260200190815260200160002060008381526020019081526020016000206000820154816000015560018201548160010155600282018160020190816123219190614000565b5060038201548160030155600482015481600401556005820181600501908161234a9190614000565b506006820181600601908161235f9190614000565b50600782018160070190816123749190614000565b5090505080600a60008673ffffffffffffffffffffffffffffffffffffffff1673ffffffffffffffffffffffffffffffffffffffff1681526020019081526020016000206000838152602001908152602001600020600001819055508080600101915050612245565b50600a60008473ffffffffffffffffffffffffffffffffffffffff1673ffffffffffffffffffffffffffffffffffffffff1681526020019081526020016000206000828152602001908152602001600020600080820160009055600182016000905560028201600061244f9190612e3a565b6003820160009055600482016000905560058201600061246f9190612e3a565b60068201600061247f9190612e3a565b60078201600061248f9190612e3a565b5050505050565b6000600560009054906101000a900473ffffffffffffffffffffffffffffffffffffffff16905081600560006101000a81548173ffffffffffffffffffffffffffffffffffffffff021916908373ffffffffffffffffffffffffffffffffffffffff1602179055508173ffffffffffffffffffffffffffffffffffffffff168173ffffffffffffffffffffffffffffffffffffffff167f8be0079c531659141344cd1fd0a4f28419497f9722a3daafe3b4186f6b6457e060405160405180910390a35050565b600060096000838152602001908152602001600020600001541161257f82611e9f565b60405160200161258f9190613859565b604051602081830303815290604052906125df576040517f08c379a00000000000000000000000000000000000000000000000000000000081526004016125d69190612f27565b60405180910390fd5b506009600082815260200190815260200160002060008082016000905560018201600090556002820160006126149190612e3a565b600382016000905560048201600090556005820160006126349190612e3a565b6006820160006126449190612e3a565b6007820160006126549190612e3a565b505060008190505b60065481101561273f57600960006001836126779190613fb6565b8152602001908152602001600020600960008381526020019081526020016000206000820154816000015560018201548160010155600282018160020190816126c09190614000565b506003820154816003015560048201548160040155600582018160050190816126e99190614000565b50600682018160060190816126fe9190614000565b50600782018160070190816127139190614000565b50905050806009600083815260200190815260200160002060000181905550808060010191505061265c565b5060096000600654815260200190815260200160002060008082016000905560018201600090556002820160006127769190612e3a565b600382016000905560048201600090556005820160006127969190612e3a565b6006820160006127a69190612e3a565b6007820160006127b69190612e3a565b5050600660008154809291906127cb906144b9565b9190505550600760008154809291906127e3906144b9565b91905055507fac938ecd083d1d3c652e36e9781cc4c2c1f13f6a2e3ffab6f91f263767ffafe9338260405161281992919061442a565b60405180910390a150565b600073ffffffffffffffffffffffffffffffffffffffff168273ffffffffffffffffffffffffffffffffffffffff16036128965760006040517fec442f0500000000000000000000000000000000000000000000000000000000815260040161288d919061369d565b60405180910390fd5b6128a260008383612bd0565b5050565b600073ffffffffffffffffffffffffffffffffffffffff168473ffffffffffffffffffffffffffffffffffffffff16036129185760006040517fe602df0500000000000000000000000000000000000000000000000000000000815260040161290f919061369d565b60405180910390fd5b600073ffffffffffffffffffffffffffffffffffffffff168373ffffffffffffffffffffffffffffffffffffffff160361298a5760006040517f94280d62000000000000000000000000000000000000000000000000000000008152600401612981919061369d565b60405180910390fd5b81600160008673ffffffffffffffffffffffffffffffffffffffff1673ffffffffffffffffffffffffffffffffffffffff16815260200190815260200160002060008573ffffffffffffffffffffffffffffffffffffffff1673ffffffffffffffffffffffffffffffffffffffff168152602001908152602001600020819055508015612a77578273ffffffffffffffffffffffffffffffffffffffff168473ffffffffffffffffffffffffffffffffffffffff167f8c5be1e5ebec7d5bd14f71427d1e84f3dd0314c0f7b2291e5b200ac8c7c3b92584604051612a6e91906132bd565b60405180910390a35b50505050565b600080600090507a184f03e93ff9f4daa797ed6e38ed64bf6a1f0100000000000000008310612adb577a184f03e93ff9f4daa797ed6e38ed64bf6a1f0100000000000000008381612ad157612ad0614453565b5b0492506040810190505b6d04ee2d6d415b85acef81000000008310612b18576d04ee2d6d415b85acef81000000008381612b0e57612b0d614453565b5b0492506020810190505b662386f26fc100008310612b4757662386f26fc100008381612b3d57612b3c614453565b5b0492506010810190505b6305f5e1008310612b70576305f5e1008381612b6657612b65614453565b5b0492506008810190505b6127108310612b95576127108381612b8b57612b8a614453565b5b0492506004810190505b60648310612bb85760648381612bae57612bad614453565b5b0492506002810190505b600a8310612bc7576001810190505b80915050919050565b600073ffffffffffffffffffffffffffffffffffffffff168373ffffffffffffffffffffffffffffffffffffffff1603612c22578060026000828254612c169190613fb6565b92505081905550612cf5565b60008060008573ffffffffffffffffffffffffffffffffffffffff1673ffffffffffffffffffffffffffffffffffffffff16815260200190815260200160002054905081811015612cae578381836040517fe450d38c000000000000000000000000000000000000000000000000000000008152600401612ca593929190614482565b60405180910390fd5b8181036000808673ffffffffffffffffffffffffffffffffffffffff1673ffffffffffffffffffffffffffffffffffffffff16815260200190815260200160002081905550505b600073ffffffffffffffffffffffffffffffffffffffff168273ffffffffffffffffffffffffffffffffffffffff1603612d3e5780600260008282540392505081905550612d8b565b806000808473ffffffffffffffffffffffffffffffffffffffff1673ffffffffffffffffffffffffffffffffffffffff168152602001908152602001600020600082825401925050819055505b8173ffffffffffffffffffffffffffffffffffffffff168373ffffffffffffffffffffffffffffffffffffffff167fddf252ad1be2c89b69c2b068fc378daa952ba7f163c4a11628f55a4df523b3ef83604051612de891906132bd565b60405180910390a3505050565b60405180610100016040528060008152602001600081526020016060815260200160008152602001600081526020016060815260200160608152602001606081525090565b508054612e4690613754565b6000825580601f10612e585750612e77565b601f016020900490600052602060002090810190612e769190612e7a565b5b50565b5b80821115612e93576000816000905550600101612e7b565b5090565b600081519050919050565b600082825260208201905092915050565b60005b83811015612ed1578082015181840152602081019050612eb6565b60008484015250505050565b6000601f19601f8301169050919050565b6000612ef982612e97565b612f038185612ea2565b9350612f13818560208601612eb3565b612f1c81612edd565b840191505092915050565b60006020820190508181036000830152612f418184612eee565b905092915050565b6000604051905090565b600080fd5b600080fd5b600073ffffffffffffffffffffffffffffffffffffffff82169050919050565b6000612f8882612f5d565b9050919050565b612f9881612f7d565b8114612fa357600080fd5b50565b600081359050612fb581612f8f565b92915050565b6000819050919050565b612fce81612fbb565b8114612fd957600080fd5b50565b600081359050612feb81612fc5565b92915050565b6000806040838503121561300857613007612f53565b5b600061301685828601612fa6565b925050602061302785828601612fdc565b9150509250929050565b60008115159050919050565b61304681613031565b82525050565b6000602082019050613061600083018461303d565b92915050565b600080fd5b600080fd5b7f4e487b7100000000000000000000000000000000000000000000000000000000600052604160045260246000fd5b6130a982612edd565b810181811067ffffffffffffffff821117156130c8576130c7613071565b5b80604052505050565b60006130db612f49565b90506130e782826130a0565b919050565b600067ffffffffffffffff82111561310757613106613071565b5b61311082612edd565b9050602081019050919050565b82818337600083830152505050565b600061313f61313a846130ec565b6130d1565b90508281526020810184848401111561315b5761315a61306c565b5b61316684828561311d565b509392505050565b600082601f83011261318357613182613067565b5b813561319384826020860161312c565b91505092915050565b600080600080600080600060e0888a0312156131bb576131ba612f53565b5b60006131c98a828b01612fdc565b975050602088013567ffffffffffffffff8111156131ea576131e9612f58565b5b6131f68a828b0161316e565b96505060406132078a828b01612fdc565b95505060606132188a828b01612fdc565b945050608088013567ffffffffffffffff81111561323957613238612f58565b5b6132458a828b0161316e565b93505060a088013567ffffffffffffffff81111561326657613265612f58565b5b6132728a828b0161316e565b92505060c088013567ffffffffffffffff81111561329357613292612f58565b5b61329f8a828b0161316e565b91505092959891949750929550565b6132b781612fbb565b82525050565b60006020820190506132d260008301846132ae565b92915050565b6000806000606084860312156132f1576132f0612f53565b5b60006132ff86828701612fa6565b935050602061331086828701612fa6565b925050604061332186828701612fdc565b9150509250925092565b600060ff82169050919050565b6133418161332b565b82525050565b600060208201905061335c6000830184613338565b92915050565b600081519050919050565b600082825260208201905092915050565b6000819050602082019050919050565b61339781612fbb565b82525050565b600082825260208201905092915050565b60006133b982612e97565b6133c3818561339d565b93506133d3818560208601612eb3565b6133dc81612edd565b840191505092915050565b600061010083016000830151613400600086018261338e565b506020830151613413602086018261338e565b506040830151848203604086015261342b82826133ae565b9150506060830151613440606086018261338e565b506080830151613453608086018261338e565b5060a083015184820360a086015261346b82826133ae565b91505060c083015184820360c086015261348582826133ae565b91505060e083015184820360e086015261349f82826133ae565b9150508091505092915050565b60006134b883836133e7565b905092915050565b6000602082019050919050565b60006134d882613362565b6134e2818561336d565b9350836020820285016134f48561337e565b8060005b85811015613530578484038952815161351185826134ac565b945061351c836134c0565b925060208a019950506001810190506134f8565b50829750879550505050505092915050565b6000602082019050818103600083015261355c81846134cd565b905092915050565b60008060008060008060c0878903121561358157613580612f53565b5b600087013567ffffffffffffffff81111561359f5761359e612f58565b5b6135ab89828a0161316e565b96505060206135bc89828a01612fdc565b95505060406135cd89828a01612fdc565b945050606087013567ffffffffffffffff8111156135ee576135ed612f58565b5b6135fa89828a0161316e565b935050608087013567ffffffffffffffff81111561361b5761361a612f58565b5b61362789828a0161316e565b92505060a087013567ffffffffffffffff81111561364857613647612f58565b5b61365489828a0161316e565b9150509295509295509295565b60006020828403121561367757613676612f53565b5b600061368584828501612fa6565b91505092915050565b61369781612f7d565b82525050565b60006020820190506136b2600083018461368e565b92915050565b6000602082840312156136ce576136cd612f53565b5b60006136dc84828501612fdc565b91505092915050565b600080604083850312156136fc576136fb612f53565b5b600061370a85828601612fa6565b925050602061371b85828601612fa6565b9150509250929050565b7f4e487b7100000000000000000000000000000000000000000000000000000000600052602260045260246000fd5b6000600282049050600182168061376c57607f821691505b60208210810361377f5761377e613725565b5b50919050565b600081905092915050565b7f546f6b656e2074726565206e6f7420666f756e642e20546f6b656e207472656560008201527f206b657920000000000000000000000000000000000000000000000000000000602082015250565b60006137ec602583613785565b91506137f782613790565b602582019050919050565b600061380d82612e97565b6138178185613785565b9350613827818560208601612eb3565b80840191505092915050565b7f20646f6573206e6f742065786973747300000000000000000000000000000000815250565b6000613864826137df565b91506138708284613802565b915061387b82613833565b60108201915081905092915050565b7f537065636965732063616e206e6f7420626520656d7074790000000000000000600082015250565b60006138c0601883612ea2565b91506138cb8261388a565b602082019050919050565b600060208201905081810360008301526138ef816138b3565b9050919050565b7f50726963652063616e206e6f74206265206e756c000000000000000000000000600082015250565b600061392c601483612ea2565b9150613937826138f6565b602082019050919050565b6000602082019050818103600083015261395b8161391f565b9050919050565b7f506c616e74696e6720646174652063616e206e6f74206265206e756c00000000600082015250565b6000613998601c83612ea2565b91506139a382613962565b602082019050919050565b600060208201905081810360008301526139c78161398b565b9050919050565b7f4c6f636174696f6e2063616e206e6f7420626520656d70747900000000000000600082015250565b6000613a04601983612ea2565b9150613a0f826139ce565b602082019050919050565b60006020820190508181036000830152613a33816139f7565b9050919050565b7f4c6f636174696f6e206f776e6572206e616d652063616e206e6f74206265206560008201527f6d70747900000000000000000000000000000000000000000000000000000000602082015250565b6000613a96602483612ea2565b9150613aa182613a3a565b604082019050919050565b60006020820190508181036000830152613ac581613a89565b9050919050565b7f4c6f636174696f6e206f776e657220616464726573732063616e206e6f74206260008201527f6520656d70747900000000000000000000000000000000000000000000000000602082015250565b6000613b28602783612ea2565b9150613b3382613acc565b604082019050919050565b60006020820190508181036000830152613b5781613b1b565b9050919050565b60008190508160005260206000209050919050565b60006020601f8301049050919050565b600082821b905092915050565b600060088302613bc07fffffffffffffffffffffffffffffffffffffffffffffffffffffffffffffffff82613b83565b613bca8683613b83565b95508019841693508086168417925050509392505050565b6000819050919050565b6000613c07613c02613bfd84612fbb565b613be2565b612fbb565b9050919050565b6000819050919050565b613c2183613bec565b613c35613c2d82613c0e565b848454613b90565b825550505050565b600090565b613c4a613c3d565b613c55818484613c18565b505050565b5b81811015613c7957613c6e600082613c42565b600181019050613c5b565b5050565b601f821115613cbe57613c8f81613b5e565b613c9884613b73565b81016020851015613ca7578190505b613cbb613cb385613b73565b830182613c5a565b50505b505050565b600082821c905092915050565b6000613ce160001984600802613cc3565b1980831691505092915050565b6000613cfa8383613cd0565b9150826002028217905092915050565b613d1382612e97565b67ffffffffffffffff811115613d2c57613d2b613071565b5b613d368254613754565b613d41828285613c7d565b600060209050601f831160018114613d745760008415613d62578287015190505b613d6c8582613cee565b865550613dd4565b601f198416613d8286613b5e565b60005b82811015613daa57848901518255600182019150602085019450602081019050613d85565b86831015613dc75784890151613dc3601f891682613cd0565b8355505b6001600288020188555050505b505050505050565b600061010082019050613df2600083018b6132ae565b613dff602083018a6132ae565b8181036040830152613e118189612eee565b9050613e2060608301886132ae565b613e2d60808301876132ae565b81810360a0830152613e3f8186612eee565b905081810360c0830152613e538185612eee565b905081810360e0830152613e678184612eee565b90509998505050505050505050565b7f546f6b656e2074726565206e6f7420666f756e642e546f6b656e20747265652060008201527f6b65792000000000000000000000000000000000000000000000000000000000602082015250565b6000613ed2602483613785565b9150613edd82613e76565b602482019050919050565b7f20646f6573206e6f7420657869737420696e2073656e64657220636f6c6c656360008201527f74696f6e00000000000000000000000000000000000000000000000000000000602082015250565b6000613f44602483613785565b9150613f4f82613ee8565b602482019050919050565b6000613f6582613ec5565b9150613f718284613802565b9150613f7c82613f37565b915081905092915050565b7f4e487b7100000000000000000000000000000000000000000000000000000000600052601160045260246000fd5b6000613fc182612fbb565b9150613fcc83612fbb565b9250828201905080821115613fe457613fe3613f87565b5b92915050565b600081549050613ff981613754565b9050919050565b81810361400e5750506140e6565b61401782613fea565b67ffffffffffffffff8111156140305761402f613071565b5b61403a8254613754565b614045828285613c7d565b6000601f8311600181146140745760008415614062578287015490505b61406c8582613cee565b8655506140df565b601f19841661408287613b5e565b965061408d86613b5e565b60005b828110156140b557848901548255600182019150600185019450602081019050614090565b868310156140d257848901546140ce601f891682613cd0565b8355505b6001600288020188555050505b5050505050505b565b60006060820190506140fd60008301866132ae565b61410a602083018561368e565b614117604083018461368e565b949350505050565b600081905092915050565b50565b600061413a60008361411f565b91506141458261412a565b600082019050919050565b600061415b8261412d565b9150819050919050565b7f4574686572207472616e73666572206661696c65640000000000000000000000600082015250565b600061419b601583612ea2565b91506141a682614165565b602082019050919050565b600060208201905081810360008301526141ca8161418e565b9050919050565b7f4e487b7100000000000000000000000000000000000000000000000000000000600052603260045260246000fd5b600061420b82612fbb565b91507fffffffffffffffffffffffffffffffffffffffffffffffffffffffffffffffff820361423d5761423c613f87565b5b600182019050919050565b7f20646f6573206e6f7420657869737420696e20796f757220636f6c6c6563746960008201527f6f6e000000000000000000000000000000000000000000000000000000000000602082015250565b60006142a4602283613785565b91506142af82614248565b602282019050919050565b60006142c582613ec5565b91506142d18284613802565b91506142dc82614297565b915081905092915050565b60006040820190506142fc60008301856132ae565b614309602083018461368e565b9392505050565b7f206973206e6f7420617661696c61626c65000000000000000000000000000000815250565b6000614341826137df565b915061434d8284613802565b915061435882614310565b60118201915081905092915050565b7f496e636f727265637420616d6f756e7400000000000000000000000000000000815250565b7f2c2073656e74203a200000000000000000000000000000000000000000000000815250565b7f2c2063757272656e742070726963652069732000000000000000000000000000815250565b60006143e482614367565b6010820191506143f38261438d565b6009820191506144038285613802565b915061440e826143b3565b60138201915061441e8284613802565b91508190509392505050565b600060408201905061443f600083018561368e565b61444c60208301846132ae565b9392505050565b7f4e487b7100000000000000000000000000000000000000000000000000000000600052601260045260246000fd5b6000606082019050614497600083018661368e565b6144a460208301856132ae565b6144b160408301846132ae565b949350505050565b60006144c482612fbb565b9150600082036144d7576144d6613f87565b5b60018203905091905056fea26469706673582212207495e2f969db6339e8590063808a966568b2b16d79272ebb2eff1aa930fcf43c64736f6c634300081a0033",
  "linkReferences": {},
  "deployedLinkReferences": {}
}